:020000040800F2
:1000000000500020FD1700083D17000843170008A6
:1000100000000000000000000000000000000000E0
:100020000000000000000000000000004917000868
:100030000000000000000000531700085D170008D2
:100040004D1800084D1800086D1700084D180008DD
:100050004D1800084D1800084D1800084D180008EC
:10006000000000004D1800084D1800084D18000849
:100070004D1800084D1800084D1800084D180008CC
:100080004D1800084D1800084D1800080000000029
:100090004D1800084D1800084D1800084D180008AC
:1000A0004D1800084D1800084D1800084D1800089C
:1000B0004D1800084D180008000000000000000066
:1000C00010B5064C2378002B07D1054B002B02D02E
:1000D000044800E000BF0123237010BD7000002021
:1000E00000000000D06C0008044B10B5002B03D0BA
:1000F0000349044800E000BF10BDC04600000000F6
:1001000074000020D06C000803B471464908400018
:100110004900095E49008E4403BC70470022430831
:100120008B4274D303098B425FD3030A8B4244D3BF
:10013000030B8B4228D3030C8B420DD3FF22090201
:1001400012BA030C8B4202D31212090265D0030BC0
:100150008B4219D300E0090AC30B8B4201D3CB03B6
:10016000C01A5241830B8B4201D38B03C01A5241F8
:10017000430B8B4201D34B03C01A5241030B8B42FA
:1001800001D30B03C01A5241C30A8B4201D3CB02E5
:10019000C01A5241830A8B4201D38B02C01A5241CA
:1001A000430A8B4201D34B02C01A5241030A8B42CD
:1001B00001D30B02C01A5241CDD2C3098B4201D3E5
:1001C000CB01C01A524183098B4201D38B01C01A63
:1001D000524143098B4201D34B01C01A52410309DA
:1001E0008B4201D30B01C01A5241C3088B4201D389
:1001F000CB00C01A524183088B4201D38B00C01A36
:10020000524143088B4201D34B00C01A5241411A5C
:1002100000D20146524110467047FFE701B5002069
:1002200000F006F802BDC0460029F7D076E7704717
:100230007047C046002B11D1002A0FD1002900D1F0
:10024000002802D00021C943080007B4024802A1D7
:100250004018029003BDC046D9FFFFFF03B46846B3
:1002600001B5029800F034F8019B9E4602B00CBC28
:100270007047C046F0B5CE46474680B50700994660
:100280003B0C9C4613041B0C1D000E006146000431
:10029000140C000C45434B4360436143C0182C0CC5
:1002A00020188C46834203D980235B029846C444BD
:1002B000494679437243030C63442D042D0CC9183D
:1002C000000440198918C0BCB946B046F0BDC0460C
:1002D000F0B557464E464546DE46E0B504000D00F3
:1002E0009246994683B08B4230D82DD0494650462D
:1002F00000F0BAF829000600200000F0B5F8331A23
:100300009846203B9B4633D45A4653469340424638
:100310001F00534693401E00AF423AD8AF4200D16F
:1003200078E05B46A41BBD41002B00DA75E000229B
:1003300000230092019301235A4693400193012325
:1003400042469340009328E08242CFD90022002306
:10035000009201930C9B002B01D01C605D60009803
:10036000019903B0F0BCBB46B246A946A046F0BD19
:10037000424620239B1A5246DA40414613004A4621
:100380008A40170042461F43534693401E00AF4227
:10039000C4D900220023009201934346002BD9D0F8
:1003A000FB0772081A4346467B080EE0AB4201D1B8
:1003B000A2420CD8A41A9D41012024196D410021AC
:1003C000013E24184D41002E06D0AB42EED9013E2D
:1003D00024196D41002EF8D1009801995B4600194F
:1003E0006941002B24DB2B005A464446D3402A00A7
:1003F000E2401C005B461500002B2ADB26009E40D5
:10040000330026004746BE403200801A99410090D2
:1004100001919FE7A342BCD883E7424620230021F5
:100420009B1A0022009101920122DA40019286E794
:10043000424620239B1A2A0046469A402300F34056
:10044000444613432A00E2401C005B461500002B83
:10045000D4DA42462F002023260097409B1ADE4024
:100460003B003343CDE7C04610B5002903D100F06F
:1004700007F8203002E0080000F002F810BDC04686
:100480001C2101231B04984201D3000C10391B0AC4
:10049000984201D3000A08391B09984201D3000988
:1004A000043902A2105C40187047C04604030202DF
:1004B00001010101000000000000000080B582B0D1
:1004C00000AF7860074B7A681A60074B1B68986822
:1004D00000230222002105F06BFBC046BD4602B09E
:1004E00080BDC0468C0000200C00002080B582B08A
:1004F00000AF78607B68002B04DB7B68022B01DC9B
:10050000012305E005F008FB030009221A6000231F
:100510001800BD4602B080BDB0B586B000AFF8602F
:10052000B9607A60FB68012B02D0FB68022B14D102
:100530000F4B18687B689AB217257C1901235B4220
:10054000B96804F0F3FC030023707B191B78002BBF
:1005500001D17B6808E0052306E005F0DDFA030021
:1005600009221A6001235B421800BD4606B0B0BDE7
:100570008C00002080B582B000AF78607B68002BD3
:1005800004DB7B68022B01DC002306E005F0C4FAE3
:10059000030009221A6001235B421800BD4602B025
:1005A00080BD80B584B000AFF860B9607A6005F0B6
:1005B000B3FA030009221A6001235B421800BD460A
:1005C00004B080BDB0B586B000AFF860B9607A60A5
:1005D000FB68002B13D10F4B186817257C190123DA
:1005E0005B42B968012204F049FD030023707B19C6
:1005F0001B78002B01D1012308E0052306E005F05C
:100600008BFA030009221A6001235B421800BD46E1
:1006100006B0B0BD8C00002080B582B000AF78601D
:1006200039607B68002B08DB7B68022B05DC3B68AC
:10063000802292015A60002305E005F06DFA030064
:1006400009221A6000231800BD4602B080BD0000D8
:10065000B0B588B002AF01F0FBF800F03BF900F054
:100660009BFB00F0A9F900F0F7FA00F065FB00F041
:100670002BFB00F015FA00F053FA824B1800FFF73D
:100680001DFF814B1B68814A1A407F4B8021490125
:100690000A431A600C217B187D4A1A807A187D481B
:1006A000FA239B00009302238A2101F071FF031EAD
:1006B00004D1794B180005F061FA03E0774B18007C
:1006C00005F05CFA764B00220421180001F0ACFE24
:1006D000012001F02DF9724B01220421180001F0D4
:1006E000A3FE012001F024F96D4B00220421180023
:1006F00001F09AFE0A2001F01BF90F257C19694BC5
:100700004221180000F0B7FC030023707B191A780F
:10071000654B1100180005F031FA624BFF22C02131
:10072000180000F07BFC5F4BFF22C121180000F095
:1007300075FC0A2001F0FCF85A4B012281211800B7
:1007400000F06CFC0A2001F0F3F8564B0722A421BC
:10075000180000F063FC0A2001F0EAF8514B002277
:100760008121180000F05AFC0A2001F0E1F84D4BFD
:1007700080228121180000F051FCA023DB0501221A
:100780001021180001F050FE484B180005F0F6F952
:1007900008243B19464A1A6080239B0145480022E1
:1007A000190001F041FE3A1D391943480323009313
:1007B000042304F06DF880239B013E4801221900B8
:1007C00001F032FE3B1D5B7819003B1D9B781A003F
:1007D0003B1DDB78394805F0D1F93B00384A1278E7
:1007E0001A7080239B0133480022190001F01CFE7F
:1007F000390031480323012203F0CDFD80239B0102
:100800002C480122190001F00FFE2E4B180005F0B4
:10081000B5F92D4B180005F0B1F900F007FD2B4B91
:10082000180005F0ABF900237B610EE0052000F015
:100830004DFC642001F07CF8072000F047FC6420A8
:1008400001F076F87B6901337B617B69022BEDDD7A
:1008500000233B610EE0012000F038FC642001F031
:1008600067F8072000F032FC642001F061F83B6972
:1008700001333B613B69022BEDDD154B180005F0A0
:100880007DF9FEE70C02002000700040FFE7FFFF4B
:1008900030A2FFFFEC000020E86C0008046D0008A7
:1008A00000080050B40100201C6D0008346D0008E1
:1008B0009F55AA55000400505C010020586D0008A7
:1008C000086E0008746D0008906D0008C06D000887
:1008D000E86D000890B59BB000AF34243B191800B8
:1008E00034231A00002105F041F92023FB181800D9
:1008F00014231A00002105F039F93B0018002023C9
:100900001A00002105F032F9294B1B68294A1A40C8
:10091000274B802109010A431A6021007B180A2213
:100920001A607B180922DA607B1810221A617B1882
:1009300001225A617B1800225A627B18180002F0CB
:1009400053F9031E01D000F00FFD20217B180F2268
:100950001A607B1801225A607B1800229A607B186B
:100960000022DA607B1800221A617B18002118002F
:1009700002F0B6FC031E01D000F0F6FC3B00292279
:100980001A603B0001229A603B0000225A613B0042
:10099000802292025A603B00180002F0C5FE031E3E
:1009A00001D000F0E1FCC046BD461BB090BDC04682
:1009B00000700040FFE7FFFF80B582B000AF3B0052
:1009C000180008231A00002105F0D0F8304B314AF6
:1009D0001A602F4B0022DA632D4BC02212065A6098
:1009E0002B4B00229A602A4B00229A63284B01224B
:1009F0001A61274B0022DA60254B202200219954EE
:100A0000234B212200219954214B00229A62204B32
:100A1000C222FF325A621E4B2C22002199541C4BD9
:100A200004225A611A4B00221A63194B00229A6160
:100A3000174B00225A63164B0022DA61144B180040
:100A400000F09AFF031E01D000F08EFC3B00124A1A
:100A50001A603B00802252015A603A000C4B110090
:100A6000180001F0FDF8031E01D000F07DFC3B00F2
:100A70000A4A1A603A00064B1100180001F0F0F81B
:100A8000031E01D000F070FCC046BD4602B080BD20
:100A900090000020002401400000044800000244AF
:100AA00080B500AF1B4B1C4A1A601A4B1B4A5A6098
:100AB000184B00229A60174B0122DA60154B002276
:100AC0001A61144B00225A61124B00229A61114B99
:100AD0000022DA610F4B00221A620E4B180001F05F
:100AE000C1FC031E01D000F03FFC0A4B002118009E
:100AF00001F0E2FF031E01D000F036FC054B00219F
:100B0000180002F025F8031E01D000F02DFCC046AD
:100B1000BD4680BDEC00002000540040140E0000D3
:100B200080B590B000AF2C23FB18180014231A00D6
:100B3000002105F01BF82823FB1800221A603B0057
:100B4000180028231A00002105F010F8404B414AF4
:100B50001A603F4B00225A603D4B7F229A603C4B0B
:100B6000FF22DA603A4B00221A61394B00225A61A7
:100B7000374B00229A61364B0022DA61344B180061
:100B800002F018FF031E01D000F0EEFB2C217B18B1
:100B900000221A707B1800225A707B1800229A706B
:100BA0007B180022DA607B1800221A617918284B22
:100BB0000122180002F09CFF031E01D000F0D4FBBC
:100BC00028217B1801221A707B1801225A707B1889
:100BD00001229A707B180022DA7079181C4B0122CE
:100BE000180003F049F8031E01D000F0BDFB3B00E4
:100BF00000221A703B0000225A703B0000229A70BB
:100C00003B0000225A603B000022DA603B000022D9
:100C10001A613B0000225A613B0000229A613B00AE
:100C20000022DA613B002022012199543B008022FE
:100C300052005A623900064B0122180003F0CAF82C
:100C4000031E01D000F090FBC046BD4610B080BD31
:100C5000380100200028004080B500AF184B194A29
:100C60001A60174B822252005A60154B00229A607C
:100C7000134B0022DA60124B02221A61104B012240
:100C80005A610F4B802292009A610D4B0022DA616B
:100C90000B4B00221A620A4B00225A62084B0022B8
:100CA0009A62074B0722DA62054B180003F0B6FA86
:100CB000031E01D000F058FBC046BD4680BDC046B3
:100CC0005C0100200030014080B500AF184B194A8C
:100CD0001A60174B822252005A60154B00229A600C
:100CE000134B0022DA60124B00221A61104B0022D3
:100CF0005A610F4B802292009A610D4B0022DA61FB
:100D00000B4B00221A620A4B00225A62084B002247
:100D10009A62074B0722DA62054B180003F07EFA4D
:100D2000031E01D000F020FBC046BD4680BDC0467A
:100D3000B40100200038004080B500AF144B154AC4
:100D40001A60134BE12252025A60114B00229A6042
:100D50000F4B0022DA600E4B00221A610C4B0C2262
:100D60005A610B4B00229A61094B0022DA61084B51
:100D700000221A62064B00225A62054B180004F04A
:100D800081F8031E01D000F0EFFAC046BD4680BDD9
:100D90000C0200200038014090B58BB000AF142445
:100DA0003B19180014231A00002104F0DFFE944BB5
:100DB000DA6A934B04210A43DA62914BDB6A04221C
:100DC00013403B613B698E4BDA6A8D4B02210A432B
:100DD000DA628B4BDB6A02221340FB60FB68884BB4
:100DE000DA6A874B01210A43DA62854BDB6A01220A
:100DF0001340BB60BB68824BDA6A814B08210A430F
:100E0000DA627F4BDB6A082213407B607B687C4B95
:100E1000DA6A7B4B80210A43DA62794BDB6A8022F3
:100E200013403B603B6884239B01764801221900F4
:100E300001F0FAFA744B01220321180001F0F4FAD0
:100E4000724B01220621180001F0EEFAA023DB0507
:100E500001221021180001F0E7FA3B196C4A1A60D0
:100E60003B1900225A603B1902229A603B19674ADB
:100E70001900100001F078F83B19664A1A603B1916
:100E800000225A603B1902229A603A19A023DB051E
:100E90001100180001F068F821007B188022520030
:100EA0001A600C003B1901225A603B1900229A601B
:100EB0003B190022DA603B19524A1900100001F078
:100EC00053F83B1904221A603B1900225A603B195F
:100ED00002229A603B19504A1900100001F044F8B0
:100EE0003B1903221A603B1901225A603B19002268
:100EF0009A603B190022DA603B19434A190010003E
:100F000001F032F83B1987221A603B1900225A601F
:100F10003B1902229A603B193A4A1900100001F06D
:100F200023F83B1906221A603B1901225A603B192B
:100F300000229A603B190022DA603B19334A1900FB
:100F4000100001F011F83B19C2221A603B1903226C
:100F50005A603B1900229A603A19A023DB05110060
:100F6000180001F001F821007B18802292011A601C
:100F70000C003B1911225A603B1900229A603B1960
:100F80000022DA603B191F4A1900100000F0ECFF44
:100F90003B1910221A603B1901225A603B190022AA
:100FA0009A603B190022DA603A19A023DB05110090
:100FB000180000F0D9FF3B1930221A603B190322B8
:100FC0005A603B1900229A603B19104A1900100020
:100FD00000F0CAFF21007B18C02252011A607B1862
:100FE00003225A607B1800229A607B18054A190078
:100FF000100000F0B9FFC046BD460BB090BDC04622
:101000000010024000040050001C00500008005076
:10101000C13F00002D990000000C005080B584B045
:1010200000AF786008001100FB1C021C1A70BB1C8A
:101030000A1C1A70A023DB0500221021180001F001
:10104000F3F90C217B18FA1C12781A707B18BA1C61
:1010500012785A70791878680323022203F09BF9FA
:10106000A023DB0501221021180001F0DDF9C046A4
:10107000BD4604B080BD90B585B000AF78600A0071
:10108000FB1C1A700F243B1900221A70A023DB05E9
:1010900000221021180001F0C7F9F91C7868032319
:1010A000012203F078F9391978680323012203F04B
:1010B000C9FAA023DB0501221021180001F0B4F9C0
:1010C0003B191B781800BD4605B090BD80B582B0B5
:1010D00000AF78607B68072B00D99DE07B689A00A1
:1010E0004F4BD3181B689F464E4B0022012118001E
:1010F00001F09AF94B4B01220221180001F094F9FA
:10110000494B01220221180001F08EF984E0454B81
:1011100000220121180001F087F9424B0022022130
:10112000180001F081F9404B01220221180001F062
:101130007BF971E03B4B01220121180001F074F9A9
:10114000384B00220221180001F06EF9364B0122C3
:101150000221180001F068F95EE0324B0122012102
:10116000180001F061F92F4B00220221180001F054
:101170005BF92D4B00220221180001F055F94BE0DC
:10118000284B01220121180001F04EF9254B0122C4
:101190000221180001F048F9234B00220221180017
:1011A00001F042F938E01F4B00220121180001F044
:1011B0003BF91C4B01220221180001F035F91A4BB2
:1011C00000220221180001F02FF925E0154B002222
:1011D0000121180001F028F9124B00220221180009
:1011E00001F022F9104B00220221180001F01CF935
:1011F00012E00C4B01220121180001F015F9094BF6
:1012000001220221180001F00FF9074B01220221EF
:10121000180001F009F9C046C046BD4602B080BDC5
:10122000306E0008001C00500008005080B586B0E9
:1012300000AF3B1D180014231A00002104F096FC97
:10124000464B180003F07EF83B1D08221A603B1D38
:1012500001225A603B1D00229A603B1D0022DA6089
:101260003F4B00220821180001F0DEF83B1D3C4AEC
:101270001900100000F078FE3B1D20221A603B1D73
:1012800001225A603B1D00229A603B1D0022DA6059
:10129000334B00222021180001F0C6F83B1D304AD4
:1012A0001900100000F060FE3B1D10221A603B1D6B
:1012B00001225A603B1D00229A603B1D0022DA6029
:1012C000274B00221021180001F0AEF83B1D244AE4
:1012D0001900100000F048FE224B180003F032F80D
:1012E0003B1D8022D2001A603B1D03225A603B1D29
:1012F00000229A603B1D0022DA603B1D184A19004B
:10130000100000F031FE3B1D802212021A603B1DCE
:1013100003225A603B1D00229A603B1D0022DA60C6
:101320003B1D0F4A1900100000F01EFE3B1D8022DD
:10133000D2011A603B1D03225A603B1D00229A60B5
:101340003B1D0022DA603B1D054A1900100000F029
:101350000BFEC046BD4606B080BDC0465C01002005
:1013600000040050B401002080B500AF72B6C04642
:10137000024B180004F002FCFEE7C0460C6E0008A9
:1013800080B500AF074B5A6B064B01210A435A63E5
:10139000044B9A6B034B802149050A439A63C0466C
:1013A000BD4680BD0010024080B582B000AF7860BD
:1013B0007B681B68064A934206D1064B5A6B054B65
:1013C000802189000A435A63C046BD4602B080BDF1
:1013D000002401400010024090B589B000AF786051
:1013E0000C243B19180014231A00002104F0BEFB42
:1013F0007B681B68224A93423ED1224BDA6A214B1A
:1014000002210A43DA621F4BDB6A02221340BB60EF
:10141000BB683B19802292001A603B1912225A6065
:101420003B1900229A603B190222DA603B19042220
:101430001A613B19144A1900100000F095FD2100B3
:101440007B1840221A607B1812225A607B180022F7
:101450009A607B180222DA607B1801221A617B18DD
:10146000094A1900100000F07FFD064B9A6B054BEE
:10147000802189030A439A63C046BD4609B090BDE6
:1014800000540040001002400004005080B582B0BB
:1014900000AF78607B681B680A4A93420ED10A4B02
:1014A0001A6D094B8021C9020A431A6500220021E6
:1014B000022000F027FD022000F039FDC046BD46A5
:1014C00002B080BD002800400010024090B58BB0F3
:1014D00000AF786014243B19180014231A0000216F
:1014E00004F044FB7B681B68464A93423ED1464B5E
:1014F0005A6B454B802149010A435A63424BDA6AD1
:10150000414B02210A43DA623F4BDB6A022213405D
:101510003B613B693B1910221A603B1902225A6059
:101520003B1901229A603B190322DA603B19002221
:101530001A613B19354A1900100000F015FD210011
:101540007B1828221A607B1802225A607B1800221E
:101550009A607B180322DA607B1800221A617B18DC
:101560002A4A1900100000F0FFFC46E07B681B6867
:10157000274A934241D1244B9A6B234B8021C901C6
:101580000A439A63204BDA6A1F4B02210A43DA624C
:101590001D4BDB6A02221340FB60FB6814217B18A1
:1015A000C02212021A600C003B1902225A603B1939
:1015B00000229A603B190322DA603B1900221A616B
:1015C0003B19124A1900100000F0CEFC21007B18D4
:1015D0008022D2001A607B1802225A607B180022F7
:1015E0009A607B180322DA607B1805221A617B1847
:1015F000064A1900100000F0B7FCC046BD460BB00B
:1016000090BDC04600300140001002400004005070
:101610000038004080B582B000AF78607B681B68FE
:10162000124A93420BD1124B5A6B114B11490A408B
:101630005A63114B3821180000F014FE11E07B684A
:101640001B680E4A93420CD1094B9A6B084B0C490C
:101650000A409A63C4231B02074A1900100000F0D5
:1016600001FEC046BD4602B080BDC046003001400C
:1016700000100240FFEFFFFF000400500038004060
:10168000FFBFFFFF90B589B000AF78600C243B1915
:10169000180014231A00002104F068FA7B681B6804
:1016A000244A934241D1244B5A6B234B8021C901D8
:1016B0000A435A63204BDA6A1F4B01210A43DA625C
:1016C0001D4BDB6A01221340BB60BB683B198022C3
:1016D000D2001A603B1902225A603B1900229A601C
:1016E0003B190322DA603B1904221A613A19A0233C
:1016F000DB051100180000F037FC21007B18802268
:1017000092001A607B1802225A607B1800229A60AD
:101710007B180222DA607B1804221A617A18A0234F
:10172000DB051100180000F01FFCC046BD4609B0E3
:1017300090BDC046003801400010024080B500AFA7
:10174000FEE780B500AFFEE780B500AFC046BD46FE
:1017500080BD80B500AFC046BD4680BD80B500AF3E
:1017600000F0CAF8C046BD4680BD000080B500AF9D
:10177000034B180002F07AFCC046BD4680BDC0464F
:101780003801002080B586B000AF7860144A154B50
:10179000D31A7B617B693B61134B1B68002B02D121
:1017A000114B124A1A60104B1A687B68D3183A69B9
:1017B0009A4207D204F0B0F903000C221A60012308
:1017C0005B4209E0084B1B68FB60074B1A687B68AB
:1017D000D218054B1A60FB681800BD4606B080BDE4
:1017E000005000200004000090020020A802002009
:1017F00080B500AFC046BD4680BD00000D4885469F
:101800000D480E490E4A002302E0D458C450043358
:10181000C4188C42F9D30B4A0B4C002301E013602F
:101820000432A242FBD3FFF7E3FF04F07BF9FEF79B
:101830000FFFFEE700500020000000207000002095
:10184000646F000870000020A8020020FEE700007E
:1018500080B582B000AFFB1D00221A700B4B1A68D6
:101860000A4B40210A431A60032000F011F8031EBE
:1018700003D0FB1D01221A7001E0FFF781FDFB1D63
:101880001B781800BD4602B080BDC0460020024053
:1018900090B583B000AF7860144B1C68144B1B7874
:1018A0001900FA239800FEF739FC03001900200004
:1018B000FEF734FC0300180000F049FB031E01D0C2
:1018C00001230FE07B68032B0BD8796801235B426F
:1018D0000022180000F016FB064B7A681A600023FD
:1018E00000E001231800BD4603B090BD00000020B9
:1018F000080000200400002080B500AF054B1B78D5
:101900001A00054B1B68D218034B1A60C046BD462F
:1019100080BDC046080000209402002080B500AFC2
:10192000024B1B681800BD4680BDC04694020020D3
:1019300080B584B000AF7860FFF7F0FF0300BB60B4
:101940007B68FB60FB68013305D00A4B1B781A00EB
:10195000FB689B18FB60C046FFF7E0FF0200BB6816
:10196000D31AFA689A42F7D8C046C046BD4604B0BA
:1019700080BDC0460800002080B582B000AF78600E
:101980007B68002B01D1012359E17B685B6D002B43
:101990000AD17B6800229A657B6850220021995405
:1019A0007B681800FFF700FD7B685B6D1022134019
:1019B000102B05D07B681B689B68042213400BD05A
:1019C0007B685B6D10221A437B685A657B685022E6
:1019D00000219954012332E17B685B6D9A4A1340E0
:1019E00002221A437B685A657B681B689B68032246
:1019F0001340012B08D17B681B681B680122134030
:101A0000012B01D1012300E00023002B49D17B6889
:101A10005A68C0231B069A420BD07B685A68802301
:101A2000DB059A4205D07B685A6880231B069A42E0
:101A300011D17B681B681A697B681B689200920849
:101A40001A617B681B6819697B685A687B681B6828
:101A50000A431A6114E07B681B681A697B681B687B
:101A6000920092081A61794B1A68784B78490A40BB
:101A70001A60764B19687B685A68744B0A431A607F
:101A80007B681B68DA687B681B6818218A43DA6008
:101A90007B681B68D9687B689A687B681B680A4307
:101AA000DA606A4B1A68694B6A490A401A60674BE8
:101AB00019687B685B6B5A06644B0A431A607B6843
:101AC0001B689A6880235B05134008D17B681B68FC
:101AD0009A687B681B68802149050A439A607B6885
:101AE0001B68DA687B681B685B490A40DA607B68C0
:101AF0001B68D9687B68DA687B681B69022B01D197
:101B0000042300E000231A437B6820201B5C5B0356
:101B10001A437B682C201B5C5B001A437B681B6BA1
:101B20001A437B689B699B031A437B68DB69DB0371
:101B30001A437B681B680A43DA607B685A6AC223CF
:101B4000FF339A420BD07B681B68D9687B685A6A5E
:101B50007B689B6A1A437B681B680A43DA607B6870
:101B600021229B5C012B1AD17B6820229B5C002BDD
:101B700009D17B681B68DA687B681B688021490291
:101B80000A43DA600BE07B685B6D20221A437B68B6
:101B90005A657B689B6D01221A437B689A657B6856
:101BA000DB6B012B1FD17B681B681A697B681B6884
:101BB0002A490A401A617B681B6819697B681A6C9C
:101BC0007B685B6C1A437B689B6C1A437B681B6861
:101BD0000A431A617B681B681A697B681B680121CC
:101BE0000A431A610EE07B681B681B6901221340DF
:101BF000012B07D17B681B681A697B681B68012170
:101C00008A431A617B681B685A697B681B680721D5
:101C10008A435A617B681B6859697B689A6B7B6849
:101C20001B680A435A617B6800229A657B685B6D7A
:101C30000322934301221A437B685A65002318004C
:101C4000BD4602B080BDC046FDFEFFFF0827014033
:101C5000FFFFC3FFFFFFFFFD1902FEFF03FCFFFFB5
:101C600080B582B000AF786039607B6850229B5CA1
:101C7000012B01D102236CE07B6850220121995491
:101C80007B681B689B68042213400BD07B685B6DEC
:101C900020221A437B685A657B68502200219954A0
:101CA000012356E03B685B682C4A934228D07B684E
:101CB0001B68996A3B681B685B035A0B7B681B684F
:101CC0000A439A623B681A688023DB02134009D0FA
:101CD000234B1A68224B802109040A431A600A2008
:101CE00000F044F83B681A6880239B0213402BD015
:101CF0001B4B1A681A4B8021C9030A431A6023E060
:101D00007B681B689A6A3B681B685B035B0BD94363
:101D10007B681B680A409A623B681A688023DB0272
:101D2000134005D00E4B1A680D4B0E490A401A603D
:101D30003B681A6880239B02134005D0084B1A6841
:101D4000074B09490A401A607B68502200219954C8
:101D500000231800BD4602B080BDC046011000003F
:101D600008270140FFFF7FFFFFFFBFFF80B584B062
:101D700000AF78600B4B1B680B491800FEF7CEF9DB
:101D800003001A007B685343FB6002E0FB68013BE1
:101D9000FB60FB68002BF9D1C046C046BD4604B0CD
:101DA00080BDC0460000002040420F0080B582B0D8
:101DB00000AF0200FB1D1A70FB1D1B787F2B09D89A
:101DC000FB1D1B781A001F231A40044B0121914070
:101DD0000A001A60C046BD4602B080BD00E100E0C6
:101DE00090B583B000AF02003960FB1D1A70FB1D77
:101DF0001B787F2B28D82F4AFB1D1B785BB29B08D2
:101E0000C0339B009B58FA1D1278110003220A4030
:101E1000D200FF2191400A00D2431A4011003B68D2
:101E20009B01FF221A40FB1D1B781800032303406F
:101E3000DB009A401F48FB1D1B785BB29B080A43DE
:101E4000C0339B001A5031E01B4AFB1D1B78190060
:101E50000F230B40083B9B0806339B00D318043329
:101E60001B68FA1D1278110003220A40D200FF21DC
:101E700091400A00D2431A4011003B689B01FF22A7
:101E80001A40FB1D1B78180003230340DB009A4017
:101E90000948FB1D1B781C000F232340083B9B08AF
:101EA0000A4306339B00C31804331A60C046BD467C
:101EB00003B090BD00E100E000ED00E080B582B02D
:101EC00000AF78607B685A1E80235B049A4201D37E
:101ED000012310E00A4B7A68013A5A6001235B4201
:101EE00003211800FFF77CFF054B00229A60044B8A
:101EF00007221A6000231800BD4602B080BDC0460C
:101F000010E000E080B584B000AFB9607A600F21C6
:101F10007B18021C1A70BA687B181B785BB2110020
:101F20001800FFF75DFFC046BD4604B080BD80B518
:101F300082B000AF0200FB1D1A70FB1D1B785BB264
:101F40001800FFF733FFC046BD4602B080BD80B524
:101F500082B000AF78607B681800FFF7AFFF030026
:101F60001800BD4602B080BD80B586B000AF786075
:101F7000396000237B610023FB6000233B6155E156
:101F80003B681B6801217A6991400A001340FB609D
:101F9000FB68002B00D146E13B685B6803221340DD
:101FA000012B05D03B685B6803221340022B30D124
:101FB0007B689B683B617B695B0003229A4013004E
:101FC000DA433B6913403B613B68DA687B695B003D
:101FD0009A4013003A6913433B617B683A699A60FF
:101FE0007B685B683B6101227B699A401300DA439E
:101FF0003B6913403B613B685B681B0901221A4047
:102000007B699A4013003A6913433B617B683A69E4
:102010005A603B685B6803221340032B17D07B6830
:10202000DB683B617B695B0003229A401300DA4363
:102030003B6913403B613B689A687B695B009A404F
:1020400013003A6913433B617B683A69DA603B6885
:102050005B6803221340022B23D17B69DA087B687B
:1020600008329200D3583B617B69072213409B00E2
:102070000F229A401300DA433B6913403B613B68EF
:102080001A697B6907210B409B009A4013003A694B
:1020900013433B617B69DA087B6808329200396937
:1020A000D1507B681B683B617B695B0003229A40CF
:1020B0001300DA433B6913403B613B685B680322D2
:1020C0001A407B695B009A4013003A6913433B61F5
:1020D0007B683A691A603B685A68C0239B021340C8
:1020E00000D1A0E0574B5A6B564B01210A435A636B
:1020F000554A7B699B0802339B009B583B617B6977
:10210000032213409B000F229A401300DA433B69DD
:1021100013403B617A68A023DB059A421FD07B689D
:102120004A4A934219D07B68494A934213D07B684C
:10213000484A93420DD07B68474A934207D07B6858
:10214000464A934201D105230AE0062308E004230E
:1021500006E0032304E0022302E0012300E0002361
:102160007A6903210A40920093403A6913433B6124
:1021700035497B699B0802339B003A695A50384BBA
:102180001B683B61FB68DA433B6913403B613B687A
:102190005A6880235B02134003D03A69FB681343FB
:1021A0003B612F4B3A691A602D4B5B683B61FB68C2
:1021B000DA433B6913403B613B685A6880239B02CA
:1021C000134003D03A69FB6813433B61244B3A69DF
:1021D0005A60234B9B683B61FB68DA433B691340C1
:1021E0003B613B685A6880235B03134003D03A6924
:1021F000FB6813433B611A4B3A699A60184BDB68E2
:102200003B61FB68DA433B6913403B613B685A68BA
:1022100080239B03134003D03A69FB6813433B615F
:102220000F4B3A69DA607B6901337B613B681A685E
:102230007B69DA40131E00D0A2E6C046C046BD4608
:1022400006B080BD001002400000014000040050B4
:1022500000080050000C005000100050001C0050FE
:102260000004014080B586B000AF7860396000237B
:102270007B6100233B610023FB60BCE001227B69A2
:102280009A403B6813403B613B69002B00D1AFE0B3
:102290005E4A7B699B0802339B009B58FB607B690D
:1022A000032213409B000F229A40FB681340FB60FF
:1022B0007A68A023DB059A421FD07B68544A934278
:1022C00019D07B68534A934213D07B68524A934299
:1022D0000DD07B68514A934207D07B68504A9342A5
:1022E00001D105230AE0062308E0042306E00323C6
:1022F00004E0022302E0012300E000237A690321C5
:102300000A4092009340FA689A4232D1454B1A68CB
:102310003B69D943434B0A401A60424B5A683B69B8
:10232000D943404B0A405A603E4B9A683B69D943B7
:102330003C4B0A409A603B4BDA683B69D943394BC6
:102340000A40DA607B69032213409B000F229A4007
:102350001300FB602D4A7B699B0802339B009A584F
:10236000FB68D94329487B699B080A4002339B00DC
:102370001A507B681A687B695B00032199400B0047
:102380001A437B681A607B69DA087B68083292001E
:10239000D3587A6907210A4092000F2191400A0020
:1023A000D1437A69D20819407B6808329200D15033
:1023B0007B68DB687A695200032191400A00D243AE
:1023C0001A407B68DA607B685B6801217A6991401A
:1023D0000A00D2431A407B685A607B689B687A691E
:1023E0005200032191400A00D2431A407B689A6050
:1023F0007B6901337B613A687B69DA40131E00D048
:102400003CE7C046C046BD4606B080BD0000014066
:102410000004005000080050000C00500010005054
:10242000001C00500004014080B582B000AF78600D
:1024300008001100BB1C021C1A807B1C0A1C1A70AD
:102440007B1C1B78002B04D0BB1C1A887B689A610C
:1024500003E0BB1C1A887B689A62C046BD4602B086
:1024600080BD000080B582B000AF78607B68002B33
:1024700001D1012382E07B6841229B5CDBB2002B0F
:1024800007D17B684022002199547B681800FEF731
:10249000A3FF7B684122242199547B681B681A683A
:1024A0007B681B6801218A431A607B685A687B68D5
:1024B0001B6834490A401A617B681B689A687B680C
:1024C0001B6831490A409A607B68DB68012B08D1A0
:1024D0007B689A687B681B68802109020A439A60BE
:1024E00007E07B689A687B681B68842109020A43BD
:1024F0009A607B68DB68022B04D17B681B688022B2
:1025000012015A607B681B685A687B681B681F4908
:102510000A435A607B681B68DA687B681B681A4943
:102520000A40DA607B681A697B685B691A431100AC
:102530007B689B691A027B681B680A43DA607B68C8
:10254000D9697B681A6A7B681B680A431A607B68D2
:102550001B681A687B681B6801210A431A607B6844
:1025600000225A647B684122202199547B68002212
:102570001A637B6842220021995400231800BD464B
:1025800002B080BDFFFFFFF0FF7FFFFF0080000271
:1025900090B589B002AFF86008007A6019000A238C
:1025A000FB18021C1A800823FB180A1C1A80FB68FF
:1025B00041229B5CDBB2202B00D0E7E0FB6840228D
:1025C0009B5C012B01D10223E1E0FB684022012149
:1025D0009954FFF7A3F903007B6180231902F8687F
:1025E0007B6900931923012200F0FCF8031E01D03F
:1025F0000123CCE0FB68412221219954FB6842224F
:1026000010219954FB6800225A64FB687A685A6268
:10261000FB680822BA1812885A85FB6800225A63A0
:10262000FB685B8D9BB2FF2B11D9FB68FF221A85DB
:10263000FB681B8DDAB280235C040A23FB1819881F
:10264000F868554B0093230000F000FA75E0FB6832
:102650005B8D9AB2FB681A85FB681B8DDAB280230A
:102660009C040A23FB181988F8684B4B009323003D
:1026700000F0ECF961E07A69B96AFB68180000F0D3
:10268000F0F8031E01D0012381E0FB685B6A1A7831
:10269000FB681B689A62FB685B6A5A1CFB685A629B
:1026A000FB685B8D9BB2013B9AB2FB685A85FB6865
:1026B0001B8D013B9AB2FB681A85FB685B8D9BB250
:1026C000002B3AD0FB681B8D002B36D1BA6AF86814
:1026D0007B69009313000022802100F083F8031E21
:1026E00001D0012353E0FB685B8D9BB2FF2B11D916
:1026F000FB68FF221A85FB681B8DDAB280235C041D
:102700000A23FB181988F86800230093230000F0BF
:102710009DF912E0FB685B8D9AB2FB681A85FB6835
:102720001B8DDAB280239C040A23FB181988F868F1
:1027300000230093230000F089F9FB685B8D9BB2B6
:10274000002B98D17A69B96AFB68180000F0C8F8C4
:10275000031E01D001231AE0FB681B682022DA6106
:10276000FB681B685A68FB681B680C490A405A6082
:10277000FB68412220219954FB6842220021995490
:10278000FB68402200219954002300E00223180036
:10279000BD4607B090BDC0460020008000E800FEA6
:1027A00080B582B000AF78607B681B689B690222AD
:1027B0001340022B03D17B681B6800229A627B685E
:1027C0001B689B6901221340012B07D07B681B68A3
:1027D0009A697B681B6801210A439A61C046BD461D
:1027E00002B080BD80B584B000AFF860B9603B60D6
:1027F000FB1D1A7021E03B6801331ED0FFF78EF8F5
:102800000200BB69D31A3A689A4202D33B68002B94
:1028100013D1FB685B6C20221A43FB685A64FB6887
:10282000412220219954FB68422200219954FB68DF
:1028300040220021995401230FE0FB681B689B692B
:10284000BA681340BA68D31A5A425341DBB21A002D
:10285000FB1D1B789A42CED000231800BD4604B061
:1028600080BD80B584B000AFF860B9607A602BE0BD
:102870007A68B968FB68180000F06EF8031E01D092
:10288000012329E0BB6801331ED0FFF747F802009F
:102890007B68D31ABA689A4202D3BB68002B13D163
:1028A000FB685B6C20221A43FB685A64FB68412278
:1028B00020219954FB68422200219954FB68402250
:1028C00000219954012307E0FB681B689B690222E1
:1028D0001340022BCCD100231800BD4604B080BDAC
:1028E00080B584B000AFF860B9607A6028E07A689B
:1028F000B968FB68180000F02FF8031E01D001230F
:1029000026E0FFF70BF802007B68D31ABA689A42F8
:1029100002D3BB68002B13D1FB685B6C20221A43E7
:10292000FB685A64FB68412220219954FB684222CB
:1029300000219954FB68402200219954012307E0AB
:10294000FB681B689B6920221340202BCFD10023FA
:102950001800BD4604B080BD80B584B000AFF860FB
:10296000B9607A60FB681B689B6910221340102BCA
:1029700064D1FB681B685A6880239B041A4080233B
:102980009B049A422BD0FB681B685A68FB681B6843
:102990008021C9010A435A6021E0BB6801331ED07F
:1029A000FEF7BCFF02007B68D31ABA689A4202D3D2
:1029B000BB68002B13D1FB685B6C20221A43FB68B9
:1029C0005A64FB68412220219954FB68422200216D
:1029D0009954FB6840220021995401232FE0FB68A1
:1029E0001B689B6920221340202BD6D1FB681B68F3
:1029F0001022DA61FB681B682022DA61FB6818008C
:102A0000FFF7CEFEFB681B685A68FB681B680E491F
:102A10000A405A60FB685B6C04221A43FB685A64E4
:102A2000FB68412220219954FB68422200219954DD
:102A3000FB68402200219954012300E00023180084
:102A4000BD4604B080BDC04600E800FE90B585B02C
:102A500000AFF860080011007B600A243B19021CDB
:102A60001A8009203B180A1C1A70FB681B685B68F7
:102A70003A6A510D8022D2000A400E490A43D243DD
:102A80001A4011003B191B889B059A0D3B181B78B7
:102A90001804FF231B0403401A437B681A433B6A54
:102AA0001A43FB681B680A435A60C046BD4605B01E
:102AB00090BDC046FF63FF0380B582B000AF786071
:102AC00039607B6841229B5CDBB2202B38D17B686C
:102AD00040229B5C012B01D1022332E07B68402223
:102AE000012199547B684122242199547B681B68F9
:102AF0001A687B681B6801218A431A607B681B681F
:102B00001A687B681B6811490A401A607B681B6859
:102B100019687B681B683A680A431A607B681B68FF
:102B20001A687B681B6801210A431A607B6841228E
:102B3000202199547B68402200219954002300E011
:102B400002231800BD4602B080BDC046FFEFFFFF64
:102B500080B584B000AF786039607B6841229B5CAF
:102B6000DBB2202B39D17B6840229B5C012B01D149
:102B7000022333E07B684022012199547B68412283
:102B8000242199547B681B681A687B681B680121A3
:102B90008A431A607B681B681B68FB60FB68114AEC
:102BA0001340FB603B681B02FA681343FB607B68C1
:102BB0001B68FA681A607B681B681A687B681B6868
:102BC00001210A431A607B684122202199547B68C5
:102BD000402200219954002300E002231800BD4642
:102BE00004B080BDFFF0FFFFB0B58AB000AF7860E1
:102BF0007B68002B02D1012300F06CFBC84BDB6823
:102C00000C221340FB61C64BDA6880235B02134041
:102C1000BB617B681B680122134000D17DE0FB692A
:102C2000082B07D0FB690C2B12D1BA6980235B02F9
:102C30009A420DD1BA4B1A6880239B02134000D1EF
:102C40006AE07B685B68002B66D1012300F042FBE1
:102C50007B685A6880235B029A4207D1B04B1A689E
:102C6000AF4B802149020A431A6027E07B685A680B
:102C7000A023DB029A420ED1A94B1A68A84B8021EF
:102C8000C9020A431A60A64B1A68A54B8021490263
:102C90000A431A6012E0A24B1A68A14BA1490A40EC
:102CA0001A609F4B1A6880235B021340FB60FB682D
:102CB0009B4B1A689A4B9C490A401A607B685B6878
:102CC000002B14D0FEF72AFE03007B6108E0FEF71C
:102CD00025FE02007B69D31A642B01D90323F9E294
:102CE0008F4B1A6880239B021340F0D015E0FEF74B
:102CF00015FE03007B6108E0FEF710FE02007B6911
:102D0000D31A642B01D90323E4E2854B1A6880238C
:102D10009B021340F0D100E0C0467B681B68022292
:102D2000134000D199E07B68DB687B627B6A2022DC
:102D3000134009D07A4B1A68794B20210A431A6054
:102D40007B6A202293437B62FB69042B05D0FB69DD
:102D50000C2B3ED1BB69002B3BD1714B1B6804226D
:102D6000134004D07B6A002B01D10123B2E26C4BEB
:102D70005B686E4A134019007B681B691A02684B36
:102D80000A435A60664B1B68092293431900644B3F
:102D90007A6A0A431A6000F0EBFB0100604BDB68C3
:102DA0001B090F221340624AD35C0A00DA40614BD0
:102DB0001A60614B1B6813257C191800FEF768FD2B
:102DC000030023707B191B78002B46D07B191B78DE
:102DD00080E27B6A002B27D0514B1B68092293436A
:102DE00019004F4B7A6A0A431A60FEF797FD0300F9
:102DF0007B6108E0FEF792FD02007B69D31A022B8B
:102E000001D9032366E2464B1B6804221340F1D02C
:102E1000434B5B68454A134019007B681B691A02E3
:102E20003F4B0A435A6018E03D4B1A683C4B012166
:102E30008A431A60FEF772FD03007B6108E0FEF72B
:102E40006DFD02007B69D31A022B01D9032341E2F5
:102E5000334B1B6804221340F1D17B681B6810229E
:102E6000134000D1A1E0FB69002B40D12C4B1A6824
:102E700080239B00134005D07B689B69002B01D108
:102E8000012327E2264B5B682C4A134019007B681C
:102E90001A6A234B0A435A60214B5B681B02190ACA
:102EA0007B68DB691A061E4B0A435A607B681B6A03
:102EB0005B0B0133802212029A40194BDB681B091D
:102EC0000F210B401A49CB5CDA401A4B1A601A4B9F
:102ED0001B6813257C191800FEF7DAFC0300237029
:102EE0007B191B78002B60D07B191B78F2E17B6883
:102EF0009B69002B3FD00A4B1A68094B802149007F
:102F00000A431A60FEF70AFD03007B6118E0FEF732
:102F100005FD02007B69D31A022B11D90323D9E1E5
:102F200000100240FFFFFEFFFFFFFBFFFFE0FFFF7F
:102F3000506E00080000002004000020FF1FFFFF6B
:102F4000C94B1A6880239B001340E0D0C64B5B68D6
:102F5000C64A134019007B681A6AC34B0A435A6079
:102F6000C14B5B681B02190A7B68DB691A06BE4B02
:102F70000A435A6019E0BC4B1A68BB4BBC490A4073
:102F80001A60FEF7CBFC03007B6108E0FEF7C6FC8D
:102F900002007B69D31A022B01D903239AE1B24BB9
:102FA0001A6880239B001340F0D17B681B680822BD
:102FB000134036D07B685B69002B19D0AA4B1A6D81
:102FC000A94B01210A431A65FEF7A8FC03007B61A7
:102FD00008E0FEF7A3FC02007B69D31A022B01D99B
:102FE000032377E1A04B1B6D02221340F1D018E0C0
:102FF0009D4B1A6D9C4B01218A431A65FEF78EFC8E
:1030000003007B6108E0FEF789FC02007B69D31AAC
:10301000022B01D903235DE1934B1B6D0222134068
:10302000F1D17B681B680422134000D1AEE023205D
:103030003B1800221A708C4B9A6B80235B0513405F
:1030400009D1894B9A6B884B802149050A439A63C1
:103050003B1801221A70874B1A6880235B001340CB
:103060001AD1844B1A68834B802149000A431A60A5
:10307000FEF754FC03007B6108E0FEF74FFC020002
:103080007B69D31A642B01D9032323E1794B1A6896
:1030900080235B001340F0D07B689A6880235B003C
:1030A0009A4207D1704B1A6D6F4B802149000A4339
:1030B0001A6531E07B689B68002B0CD16A4B1A6D56
:1030C000694B6B490A401A65674B1A6D664B6A4932
:1030D0000A401A6520E07B689A68A023DB009A42C8
:1030E0000ED1614B1A6D604B8021C9000A431A65ED
:1030F0005D4B1A6D5C4B802149000A431A650BE059
:10310000594B1A6D584B5A490A401A65564B1A6D5D
:10311000554B59490A401A657B689B68002B15D0AE
:10312000FEF7FCFB03007B6109E0FEF7F7FB020002
:103130007B69D31A514A934201D90323CAE04A4B0F
:103140001A6D80239B001340EFD014E0FEF7E6FBDE
:1031500003007B6109E0FEF7E1FB02007B69D31A03
:10316000464A934201D90323B4E03F4B1A6D8023B2
:103170009B001340EFD12323FB181B78012B05D1B3
:10318000394B9A6B384B3E490A409A637B685B6ABD
:10319000002B00D19DE0FB690C2B00D176E07B6811
:1031A0005B6A022B45D1304B1A682F4B35490A40D8
:1031B0001A60FEF7B3FB03007B6108E0FEF7AEFB8D
:1031C00002007B69D31A022B01D9032382E0264B2C
:1031D0001A6880239B041340F0D1234BDB682A4AF2
:1031E000134019007B689A6A7B68DB6A1A437B6824
:1031F0001B6B1A431C4B0A43DA601B4B1A681A4BB1
:10320000802149040A431A60FEF788FB03007B61B2
:1032100008E0FEF783FB02007B69D31A022B01D979
:10322000032357E0104B1A6880239B041340F0D00F
:103230004FE00D4B1A680C4B12490A401A60FEF71A
:103240006DFB03007B6108E0FEF768FB02007B6911
:10325000D31A022B01D903233CE0034B1A688023C5
:103260009B041340F0D134E000100240FF1FFFFF29
:10327000FFFEFFFF00700040FFFBFFFF8813000010
:10328000FFFFFFEFFFFFFFFEFFFF02FF7B685B6AB0
:10329000012B01D101231DE0104BDB68BB61BA6932
:1032A00080235B021A407B689B6A9A420FD1BA69FD
:1032B000F0239B031A407B68DB6A9A4207D1BA6904
:1032C000C0231B041A407B681B6B9A4201D0012368
:1032D00000E000231800BD460AB0B0BD0010024057
:1032E000B0B584B000AF786039607B68002B01D145
:1032F000012328E1964B1B68012213403A689A4249
:103300001ED9934B1B68012293431900904B3A68D6
:103310000A431A60FEF702FB0300FB6009E0FEF7B8
:10332000FDFA0200FB68D31A8A4A934201D90323AB
:1033300009E1874B1B68012213403A689A42EED19B
:103340007B681B680222134009D0834BDB68F022A4
:10335000934319007B689A687F4B0A43DA607B6865
:103360001B680122134000D189E07B685B68022B57
:1033700007D1794B1A6880239B02134020D1012387
:10338000E1E07B685B68032B07D1734B1A688023ED
:103390009B04134014D10123D5E07B685B68012BAB
:1033A00006D16D4B1B680422134009D10123CAE0EA
:1033B000694B1A6880239B00134001D10123C2E0AE
:1033C000654BDB680322934319007B685A68624BA4
:1033D0000A43DA60FEF7A2FA0300FB607B685B68D1
:1033E000022B11D109E0FEF799FA0200FB68D31A0B
:1033F000584A934201D90323A5E0574BDB680C22BE
:103400001340082BEFD13AE07B685B68032B11D1A6
:1034100009E0FEF783FA0200FB68D31A4D4A934293
:1034200001D903238FE04C4BDB680C2213400C2B9B
:10343000EFD124E07B685B68012B1BD109E0FEF72C
:103440006DFA0200FB68D31A424A934201D9032362
:1034500079E0414BDB680C221340042BEFD10EE0E6
:10346000FEF75CFA0200FB68D31A3A4A934201D98C
:10347000032368E0384BDB680C221340F0D1344B57
:103480001B68012213403A689A421ED2304B1B68D7
:103490000122934319002E4B3A680A431A60FEF743
:1034A0003DFA0300FB6009E0FEF738FA0200FB6812
:1034B000D31A284A934201D9032344E0244B1B68C2
:1034C000012213403A689A42EED17B681B680422BD
:1034D000134009D0204BDB68204A134019007B6859
:1034E000DA681D4B0A43DA607B681B6808221340C8
:1034F0000AD0194BDB681A4A134019007B681B6914
:10350000DA00154B0A43DA6000F032F80100124B82
:10351000DB681B090F221340124AD35C0A00DA4011
:10352000114B1A60114B1B680B257C191800FEF714
:10353000AFF9030023707B191B78002B02D07B1995
:103540001B7800E000231800BD4604B0B0BDC046A3
:10355000002002408813000000100240FFF8FFFF27
:10356000FFC7FFFF506E000800000020040000208D
:10357000B0B58EB000AF4C4BDB68FB62FA6A0C232F
:1035800013400C2B14D000D97BE0042B02D0082B65
:103590000BD076E0444B1B681022134002D0434B03
:1035A0003B637CE0424B3B6379E0424B3B6376E01C
:1035B000FB6A9A0C0F231A403F4B9B5CBB62FB6A71
:1035C0009A0D0323134001337B62374BDA68802363
:1035D0005B0213401AD0BB6ABB610023FB61354A12
:1035E0000023B869F969FCF745FE02000B001000E2
:1035F00019007B6A3B6100237B613A697B69FCF7B8
:1036000019FE02000B0013007B6337E0264B1B689A
:10361000102213401AD0BB6ABB600023FB60234A10
:103620000023B868F968FCF725FE02000B001000C3
:1036300019007B6A3B6000237B603A687B68FCF77B
:10364000F9FD02000B0013007B6317E0BB6A180052
:1036500000231900164A0023FCF70CFE02000B00A1
:10366000100019007B6A1C0000231D0022002B00A3
:10367000FCF7E0FD02000B0013007B637B6B3B63F8
:103680000DE0094B5B685B0B072213403B623B6A12
:103690000133802212029A4013003B63C0463B6B09
:1036A0001800BD460EB0B0BD0010024000093D003C
:1036B0000024F40000127A00686E000880B500AFA4
:1036C000024B1B681800BD4680BDC04600000020AC
:1036D00080B500AFFFF7F2FF0100064BDB681B0A65
:1036E00007221340044AD35CD9400B001800BD46A2
:1036F00080BDC04600100240606E000880B500AF7B
:10370000FFF7DCFF0100064BDB68DB0A07221340F2
:10371000044AD35CD9400B001800BD4680BDC046AA
:1037200000100240606E000880B586B000AF78607F
:1037300017203B1800221A707B681B682022134058
:1037400000D1C2E0914B9A6B80235B05134009D1F5
:103750008E4B9A6B8D4B802149050A439A633B1827
:1037600001221A708A4B1A6880235B0013401AD119
:10377000874B1A68864B802149000A431A60FEF77E
:10378000CDF803003B6108E0FEF7C8F802003B6992
:10379000D31A642B01D90323F3E07D4B1A688023ED
:1037A0005B001340F0D0794B1A68C0239B03134091
:1037B000FB607B685A68C0239B031340FA689A42F7
:1037C00013D07B685A68C0239B021A40C0239B0217
:1037D0009A420AD16D4B1A6880239B021A408023BB
:1037E0009B029A4201D10123CBE0684B1A6DC023A2
:1037F0009B021340FB60FB68002B3BD07B685A6840
:10380000C0239B021340FA689A4233D07B681B683E
:10381000202213402ED05D4B1B6D5E4A1340FB608F
:103820005A4B1A6D594B802109030A431A65574BAD
:103830001A6D564B58490A401A65544BFA681A6576
:10384000FA6880235B00134014D0FEF767F803008A
:103850003B6109E0FEF762F802003B69D31A4F4A68
:10386000934201D903238CE0484B1A6D80239B00BF
:103870001340EFD07B685A68C0239B021A40C023D4
:103880009B029A420CD1414B1B68454A13401900D8
:103890007B685A68C0239B031A403C4B0A431A605A
:1038A0003A4B196D7B685A68C0239B021A40374B0C
:1038B0000A431A651723FB181B78012B05D1334BDC
:1038C0009A6B324B37490A409A637B681B68012226
:1038D000134009D02D4BDB6C0322934319007B6806
:1038E0009A682A4B0A43DA647B681B6802221340F9
:1038F00009D0264BDB6C0C22934319007B68DA68F5
:10390000224B0A43DA647B681B680422134009D007
:103910001E4BDB6C244A134019007B681A691B4B51
:103920000A43DA647B681B680822134009D0174BEE
:10393000DB6C1E4A134019007B685A69134B0A431B
:10394000DA647B681A6880235B00134009D00F4B50
:10395000DB6C104A134019007B689A690B4B0A43D1
:10396000DA647B681B688022134009D0074BDB6C4C
:103970000F4A134019007B68DA69044B0A43DA6482
:1039800000231800BD4606B080BDC04600100240AE
:1039900000700040FFFFFCFFFFFFF7FF88130000EF
:1039A000FFFFCFFFFFFFFFEFFFF3FFFFFFCFFFFFA3
:1039B000FFFFF3FF80B582B000AF78607B68002B1B
:1039C00001D101238EE07B6821229B5CDBB2002BBE
:1039D00007D17B682022002199547B681800FDF7ED
:1039E00055FD7B682122022199547B681B68CA22FD
:1039F0005A627B681B6853225A627B68180000F089
:103A0000B2FB031E09D07B681B68FF225A627B68E9
:103A1000212204219954012364E07B681B689A6881
:103A20007B681B6831490A409A607B681B6899680B
:103A30007B685A687B681B691A437B689B691A43D9
:103A40007B681B680A439A607B681B687A68D26847
:103A50001A617B681B6819697B689B681A047B681C
:103A60001B680A431A617B681B68DA687B681B68FD
:103A700080218A43DA607B681B68DA6C7B681B688C
:103A800003218A43DA647B681B68D96C7B68DA6936
:103A90007B685B691A437B681B680A43DA647B684E
:103AA0001B689B682022134013D17B68180000F02C
:103AB00033FB031E0DD07B681B68FF225A627B68B4
:103AC0002122042199547B6820220021995401234A
:103AD00008E07B681B68FF225A627B682122012173
:103AE000995400231800BD4602B080BDBFFF8FFF70
:103AF00090B587B000AFF860B9607A60FB682022AB
:103B00009B5C012B01D10223ADE0FB682022012147
:103B10009954FB682122022199547B68002B25D1FE
:103B2000FB681B689B684022134002D1BB680022DF
:103B3000DA70BB681B78180000F03FFB03001C0420
:103B4000BB685B78180000F038FB03001B021C43C5
:103B5000BB689B78180000F030FB030022001A437A
:103B6000BB68DB781B0413437B6117E0FB681B68B1
:103B70009B684022134002D1BB680022DA70BB6808
:103B80001B781A04BB685B781B021343BA689278EF
:103B90001A43BB68DB781B0413437B61FB681B681B
:103BA000CA225A62FB681B6853225A62FB681800DB
:103BB00000F0D9FA031E0DD0FB681B68FF225A6281
:103BC000FB68212204219954FB682022002199548A
:103BD000012348E0FB681B687A6925490A401A609E
:103BE000FB681B689A68FB681B6822490A409A6058
:103BF000FB681B689968BB68DA68BB681B691A4375
:103C0000FB681B680A439A60FB681B68DA68FB68FC
:103C10001B6880218A43DA60FB681B689B6820224E
:103C2000134013D1FB68180000F076FA031E0DD084
:103C3000FB681B68FF225A62FB6821220421995409
:103C4000FB6820220021995401230CE0FB681B68CB
:103C5000FF225A62FB68212201219954FB6820222D
:103C60000021995400231800BD4607B090BDC046FE
:103C70007F7F7F00FFFFFBFF90B587B000AFF8604C
:103C8000B9607A60FB6820229B5C012B01D1022382
:103C900099E0FB68202201219954FB68212202212E
:103CA00099547B68002B0ED1BB685B781A001023F7
:103CB000134008D0BB685B7810229343DBB20A3311
:103CC000DAB2BB685A707B68002B1CD1BB68DB780A
:103CD000180000F072FA03001C04BB685B7818003F
:103CE00000F06BFA03001B021C43BB689B781800B2
:103CF00000F063FA030022001A43BB681B785B03E1
:103D000013437B610EE0BB68DB781A04BB685B7809
:103D10001B021343BA6892781A43BB681B785B0393
:103D200013437B61FB681B68CA225A62FB681B68ED
:103D300053225A62FB68180000F015FA031E0DD0DA
:103D4000FB681B68FF225A62FB68212204219954F8
:103D5000FB68202200219954012334E0FB681B6892
:103D60007A691B490A405A60FB681B68DA68FB687D
:103D70001B6880218A43DA60FB681B689B682022ED
:103D8000134013D1FB68180000F0C6F9031E0DD0D4
:103D9000FB681B68FF225A62FB68212204219954A8
:103DA000FB6820220021995401230CE0FB681B686A
:103DB000FF225A62FB68212201219954FB682022CC
:103DC0000021995400231800BD4607B090BDC0469D
:103DD0003FFFFF0090B589B000AFF860B9607A602E
:103DE000FB6820229B5C012B01D1022330E1FB68A0
:103DF000202201219954FB682122022199547B68D9
:103E0000002B36D1FB681B689B684022134002D10F
:103E1000BB680022DA70BB681B78180000F0CDF98F
:103E200003001C04BB685B78180000F0C6F90300AF
:103E30001B021C43BB689B78180000F0BEF903000E
:103E400022001A43BB68DB781B041A431400BB68CA
:103E500020229B5C180000F0B0F903001B06220032
:103E60001A43BB68DB691A43BB685B691343FB6198
:103E700022E0FB681B689B684022134002D1BB68AC
:103E80000022DA70BB681B781A04BB685B781B02DF
:103E90001343BA6892781A43BB68DB781B041A4351
:103EA000BB6820215B5C1B061A43BB68DB691A43B5
:103EB000BB685B691343FB61BB685A68BB689B695D
:103EC0001343BB61FB681B68CA225A62FB681B680C
:103ED00053225A62BB685A6A80235B009A424ED1D1
:103EE000FB681B689A68FB681B685B490A409A601C
:103EF000FB681B68DB68FF221A40FB681B68574998
:103F00000A43DA60FDF70AFD03007B6116E0FDF766
:103F100005FD02007B69D21AFA239B009A420DD953
:103F2000FB681B68FF225A62FB6821220321995417
:103F3000FB68202200219954032389E0FB681B6859
:103F4000DB6801221340E2D0FB681B68FA69DA6182
:103F5000FB681B68BA695A64FB681B689A68FB684F
:103F60001B68802149000A439A60FB681B689A68B5
:103F7000FB681B68802149010A439A604DE0FB6899
:103F80001B689A68FB681B6835490A409A60FB68A1
:103F90001B68DB68FF221A40FB681B6831490A4333
:103FA000DA60FDF7BBFC03007B6116E0FDF7B6FCB1
:103FB00002007B69D21AFA239B009A420DD9FB6852
:103FC0001B68FF225A62FB68212203219954FB6877
:103FD00020220021995403233AE0FB681B68DB6828
:103FE00002221340E2D0FB681B68FA691A62FB6880
:103FF0001B68BA699A64FB681B689A68FB681B684F
:10400000802189000A439A60FB681B689A68FB68F4
:104010001B68802189010A439A60134B1A68124B6E
:10402000802189020A431A600F4B9A680E4B802147
:1040300089020A439A60FB681B68FF225A62FB6888
:10404000212201219954FB68202200219954002348
:104050001800BD4609B090BDFFFEFFFF7FFEFFFFC9
:10406000FFFDFFFF7FFDFFFF0004014080B582B030
:1040700000AF78607B681B689A6880235B011340FF
:1040800014D07B681B68DA6880235B0013400DD076
:104090007B68180000F038F87B681B68DB68FF223B
:1040A0001A407B681B6815490A43DA607B681B6805
:1040B0009A6880239B01134014D07B681B68DA68E0
:1040C00080239B0013400DD07B68180000F09DF802
:1040D0007B681B68DB68FF221A407B681B68084905
:1040E0000A43DA60074B802292025A617B682122E0
:1040F00001219954C046BD4602B080BD7FFEFFFF3E
:104100007FFDFFFF0004014080B582B000AF786002
:10411000C046BD4602B080BD80B584B000AF7860B7
:104120007B681B68DA687B681B68A0218A43DA60B9
:10413000FDF7F4FB0300FB600AE0FDF7EFFB020074
:10414000FB68D21AFA239B009A4201D9032306E0A6
:104150007B681B68DB6820221340EED00023180028
:10416000BD4604B080BD80B584B000AF78607B6888
:104170001B68DB68402213401AD17B681B68012250
:104180005242DA60FDF7CAFB0300FB600AE0FDF76C
:10419000C5FB0200FB68D21AFA239B009A4201D9A0
:1041A000032306E07B681B68DB6840221340EED0E7
:1041B00000231800BD4604B080BD80B584B000AFB8
:1041C0000200FB1D1A700023FB600B23FB18FA1D75
:1041D00012781A7008E0FB680133FB600B22BB18F1
:1041E000BA1812780A3A1A700B217B181B78092B1F
:1041F000F1D8FB68DBB21B01DAB27B181B781343E2
:10420000DBB21800BD4604B080BD80B582B000AFFF
:104210007860C046BD4602B080BD000080B582B067
:1042200000AF78607B68002B01D1012383E07B68BD
:104230005B6A002B09D17B685A6882235B009A4233
:1042400009D07B680022DA6105E07B6800221A61F0
:104250007B6800225A617B6800229A627B68512247
:104260009B5CDBB2002B07D17B6850220021995464
:104270007B681800FDF72AF97B68512202219954C6
:104280007B681B681A687B681B6840218A431A6038
:104290007B685A6882235B001A407B689968842394
:1042A0001B020B401A437B68D96880231B010B401B
:1042B0001A437B681B6902210B401A437B685B69C8
:1042C00001210B401A437B68996980239B000B40B6
:1042D0001A437B68DB6938210B401A437B681B6AF1
:1042E00080210B401A4311007B689A6A80239B014E
:1042F0001A407B681B680A431A607B689B691B0C29
:104300000422134019007B685B6A10221A407B6804
:104310001B680A435A607B681B68DA697B681B6804
:1043200007490A40DA617B6800225A657B6851229E
:104330000121995400231800BD4602B080BDC0463B
:10434000FFF7FFFF80B582B000AF78607B68002B7D
:1043500001D101231BE07B685122022199547B6823
:104360001B681A687B681B6840218A431A607B6857
:104370001800FDF74FF97B6800225A657B685122CF
:10438000002199547B685022002199540023180081
:10439000BD4602B080BD80B588B000AFF860B9609E
:1043A0003B60BB1D1A801F23FB1800221A70FB689C
:1043B00050229B5C012B01D102233EE1FB6850227D
:1043C00001219954FDF7AAFA0300BB611623FB18DB
:1043D000BA1D12881A80FB6851229B5CDBB2012B4C
:1043E00004D01F23FB1802221A701BE1BB68002BAC
:1043F00003D0BB1D1B88002B04D11F23FB180122F7
:104400001A700FE1FB68512203219954FB680022C6
:104410005A65FB68BA681A63FB68BA1D12889A86E7
:10442000FB68BA1D1288DA86FB6800229A63FB6873
:1044300000229A87FB680022DA87FB6800225A6410
:10444000FB6800221A64FB689A6880231B029A4268
:1044500010D1FB681B681A68FB681B6840218A43FF
:104460001A60FB681B681A68FB681B688021C90119
:104470000A431A60FB681B681B6840221340402BEC
:1044800007D0FB681B681A68FB681B6840210A4359
:104490001A60FB68DA6880231B019A424ED1FB68E0
:1044A0005B68002B04D01623FB181B88012B3FD11F
:1044B000FB681B6B1A88FB681B68DA60FB681B6B68
:1044C0009A1CFB681A63FB68DB8E9BB2013B9AB2B5
:1044D000FB68DA862CE0FB681B689B6802221340AD
:1044E000022B12D1FB681B6B1A88FB681B68DA6011
:1044F000FB681B6B9A1CFB681A63FB68DB8E9BB224
:10450000013B9AB2FB68DA8612E0FDF707FA020077
:10451000BB69D31A3A689A4202D83B68013302D188
:104520003B68002B04D11F23FB1803221A7079E08B
:10453000FB68DB8E9BB2002BCDD14FE0FB685B6844
:10454000002B04D01623FB181B88012B41D1FB68DC
:104550001A6BFB681B680C3312781A70FB681B6BB4
:104560005A1CFB681A63FB68DB8E9BB2013B9AB254
:10457000FB68DA862DE0FB681B689B68022213400B
:10458000022B13D1FB681A6BFB681B680C33127883
:104590001A70FB681B6B5A1CFB681A63FB68DB8E86
:1045A0009BB2013B9AB2FB68DA8612E0FDF7B6F9DE
:1045B0000200BB69D31A3A689A4202D83B680133B9
:1045C00002D13B68002B04D11F23FB1803221A7071
:1045D00028E0FB68DB8E9BB2002BCCD1BA6939682E
:1045E000FB68180000F008FC031E02D0FB682022C4
:1045F0005A65FB689B68002B0AD100233B61FB686E
:104600001B68DB683B61FB681B689B683B613B691F
:10461000FB685B6D002B04D01F23FB1801221A706E
:1046200000E0C046FB68512201219954FB685022EA
:10463000002199541F23FB181B781800BD4608B0B1
:1046400080BD000090B589B002AFF860B9603B60F2
:10465000BB1D1A801723FB1800221A70FB685A68CA
:1046600082235B009A4213D1FB689B68002B0FD119
:10467000FB68512204219954BB1D1C88BA68B96893
:10468000F8683B680093230000F002F90300F9E0AA
:10469000FB6850229B5C012B01D10223F2E0FB68F6
:1046A000502201219954FDF739F903003B61FB6861
:1046B00051229B5CDBB2012B04D01723FB18022292
:1046C0001A70D4E0BB68002B03D0BB1D1B88002BE5
:1046D00004D11723FB1801221A70C8E0FB6851228D
:1046E00004219954FB6800225A65FB68BA689A63F2
:1046F000FB68BA1D12889A87FB68BA1D1288DA8790
:10470000FB6800221A63FB6800229A86FB6800227D
:10471000DA86FB6800221A64FB6800225A64FB6890
:104720009A6880231B029A420FD1FB681B681A68A3
:10473000FB681B6840218A431A60FB681B681A6883
:10474000FB681B6851490A401A60FB681B681B68BC
:1047500040221340402B07D0FB681B681A68FB6897
:104760001B6840210A431A60FB68DB68002B64D198
:104770002FE0FB681B689B6801221340012B15D1B9
:10478000FB681B680C331A00FB689B6B1278D2B273
:104790001A70FB689B6B5A1CFB689A63FB68DB8F83
:1047A0009BB2013B9AB2FB68DA8712E0FDF7B6F8DC
:1047B00002003B69D31A3A689A4202D83B68013337
:1047C00002D13B68002B04D11723FB1803221A7077
:1047D0004DE0FB68DB8F9BB2002BCAD132E0FB6857
:1047E0001B689B6801221340012B13D1FB681B68D7
:1047F000DA68FB689B6B92B21A80FB689B6B9A1C11
:10480000FB689A63FB68DB8F9BB2013B9AB2FB6843
:10481000DA8712E0FDF782F802003B69D31A3A68A2
:104820009A4202D83B68013302D13B68002B04D185
:104830001723FB1803221A7019E0FB68DB8F9BB269
:10484000002BCCD13A693968FB68180000F06AFA8D
:10485000031E02D0FB6820225A65FB685B6D002BAB
:1048600004D01723FB1801221A7000E0C046FB6831
:10487000512201219954FB68502200219954172399
:10488000FB181B781800BD4607B090BDFFBFFFFFA7
:1048900080B58CB000AFF860B9607A601A00BB1CBC
:1048A0001A800123FB622B23FB1800221A70FB687D
:1048B00050229B5C012B01D10223A0E1FB68502216
:1048C00001219954FDF72AF803007B6223203B184D
:1048D000FA685121525C1A70FB685B68FB611A230D
:1048E000FB18BA1C12881A803B181B78012B11D0B8
:1048F000FA6982235B009A4207D1FB689B68002B10
:1049000003D13B181B78042B04D02B23FB18022265
:104910001A7069E1BB68002B06D07B68002B03D0BE
:10492000BB1C1B88002B04D12B23FB1801221A70FF
:104930005AE1FB6851229B5CDBB2042B03D0FB687D
:10494000512205219954FB6800225A65FB687A6858
:104950009A63FB68BA1C1288DA87FB68BA1C128853
:104960009A87FB68BA681A63FB68BA1C1288DA86F1
:10497000FB68BA1C12889A86FB6800221A64FB68DE
:1049800000225A64FB681B681B6840221340402BBE
:1049900007D0FB681B681A68FB681B6840210A4344
:1049A0001A60FB68DA6880231B019A4200D07AE023
:1049B000FB685B68002B04D01A23FB181B88012BB3
:1049C00066D1FB681B6B1A88FB681B68DA60FB68A2
:1049D0001B6B9A1CFB681A63FB68DB8E9BB2013B66
:1049E0009AB2FB68DA8653E0FB681B689B68022278
:1049F0001340022B1BD1FB68DB8E9BB2002B16D021
:104A0000FB6A012B13D1FB681B6B1A88FB681B68C0
:104A1000DA60FB681B6B9A1CFB681A63FB68DB8E11
:104A20009BB2013B9AB2FB68DA860023FB62FB680B
:104A30001B689B6801221340012B19D1FB68DB8F97
:104A40009BB2002B14D0FB681B68DA68FB689B6B79
:104A500092B21A80FB689B6B9A1CFB689A63FB6896
:104A6000DB8F9BB2013B9AB2FB68DA870123FB62C2
:104A7000FCF754FF02007B6AD31ABA6B9A4207D83C
:104A8000BB6B013304D02B23FB1803221A70ABE05D
:104A9000FB68DB8E9BB2002BA6D1FB68DB8F9BB241
:104AA000002BA1D17FE0FB685B68002B05D01A23A7
:104AB000FB181B88012B00D06BE0FB681A6BFB68AE
:104AC0001B680C3312781A70FB681B6B5A1CFB684E
:104AD0001A63FB68DB8E9BB2013B9AB2FB68DA86F5
:104AE00057E0FB681B689B6802221340022B1CD115
:104AF000FB68DB8E9BB2002B17D0FB6A012B14D115
:104B0000FB681A6BFB681B680C3312781A70FB6821
:104B10001B6B5A1CFB681A63FB68DB8E9BB2013B64
:104B20009AB2FB68DA860023FB62FB681B689B680D
:104B300001221340012B19D1FB68DB8F9BB2002BA4
:104B400014D0FB681B68DA68FB689B6BD2B21A70E2
:104B5000FB689B6B5A1CFB689A63FB68DB8F9BB2FC
:104B6000013B9AB2FB68DA870123FB62FCF7D6FEB1
:104B700002007B6AD31ABA6B9A4202D8BB6B01332C
:104B800002D1BB6B002B04D12B23FB1803221A701C
:104B90002AE0FB68DB8E9BB2002BA2D1FB68DB8F87
:104BA0009BB2002B9DD17A6AB96BFB68180000F0AC
:104BB00023F9031E07D02B23FB1801221A70FB6870
:104BC00020225A6510E0FB689B68002B0BD1002364
:104BD0007B61FB681B68DB687B61FB681B689B680B
:104BE0007B617B6900E0C046FB685122012199543A
:104BF000FB685022002199542B23FB181B781800C6
:104C0000BD460CB080BD000080B588B000AFF86034
:104C1000B9603B60FB1D1A70FCF780FE0200BB6AA6
:104C20009B1A3A68D318FB61FCF778FE0300BB615E
:104C30003A4B1B685B011B0DFA6953437B6158E0DB
:104C40003B68013355D0FCF769FE0200BB69D31AFB
:104C5000FA699A4202D9FB69002B42D1FB681B68B2
:104C60005A68FB681B68E0218A435A60FB685A68EF
:104C700082235B009A4213D1FB689A6880231B024F
:104C80009A4205D0FB689A688023DB009A4207D1DC
:104C9000FB681B681A68FB681B6840218A431A601E
:104CA000FB689A6A80239B019A4210D1FB681B68BB
:104CB0001A68FB681B681A490A401A60FB681B687F
:104CC0001A68FB681B68802189010A431A60FB6827
:104CD000512201219954FB68502200219954032349
:104CE00017E07B69002B01D10023FB617B69013B4D
:104CF0007B61FB681B689B68BA681340BA68D31A6B
:104D00005A425341DBB21A00FB1D1B789A4297D1DD
:104D100000231800BD4608B080BDC046000000203A
:104D2000FFDFFFFF80B586B002AFF860B9607A6040
:104D3000FB685A6882235B009A4213D1FB689A6829
:104D400080231B029A4205D0FB689A688023DB000F
:104D50009A4207D1FB681B681A68FB681B684021F0
:104D60008A431A60FB685A6882235B009A422BD1FF
:104D7000FB689A688023DB009A4212D0BA68F86810
:104D80007B680093130000228021FFF73DFF031E84
:104D90002DD0FB685B6D20221A43FB685A65032304
:104DA00026E0BA68F8687B680093130000220121AE
:104DB000FFF72AFF031E1AD0FB685B6D20221A43FF
:104DC000FB685A65032313E0BA68F8687B680093B0
:104DD000130000220121FFF717FF031E07D0FB6815
:104DE0005B6D20221A43FB685A65032300E0002311
:104DF0001800BD4604B080BD80B588B002AFF86031
:104E0000B9607A601D4B1B681D491800FBF786F9D5
:104E100003001A0013005B019B1A9B009B18DB0028
:104E20007B61FB685A6882235B009A4212D1BA68A0
:104E3000F8687B680093130000228021FFF7E4FEEE
:104E4000031E16D0FB685B6D20221A43FB685A656F
:104E500003230FE07B69002B0AD07B69013B7B6158
:104E6000FB681B689B6880221340802BF2D000E017
:104E7000C04600231800BD4606B080BD00000020DB
:104E800000366E0180B582B000AF78607B68002B81
:104E900001D1012344E07B689B6F002B07D17B6825
:104EA0007422002199547B681800FCF7EBFB7B68A7
:104EB00024229A677B681B681A687B681B6801213B
:104EC0008A431A607B68180000F0C6F90300012BC2
:104ED00001D1012324E07B685B6A002B03D07B684F
:104EE000180000F059FC7B681B685A687B681B68D7
:104EF0000D490A405A607B681B689A687B681B688A
:104F00002A218A439A607B681B681A687B681B6841
:104F100001210A431A607B68180000F0F1FC0300CD
:104F20001800BD4602B080BDFFB7FFFF80B58AB054
:104F300002AFF860B9603B60BB1D1A80FB689B6FD5
:104F4000202B00D095E0BB68002B03D0BB1D1B8835
:104F5000002B01D101238DE0FB689A6880235B015F
:104F60009A4209D1FB681B69002B05D1BB6801225D
:104F7000134001D001237DE0FB6874229B5C012B70
:104F800001D1022376E0FB68742201219954FB6869
:104F9000802200219950FB6821229A67FCF7BEFC11
:104FA00003007B61FB68BA1D502112885A52FB68CE
:104FB000BA1D522112885A52FB689A6880235B01FD
:104FC0009A4208D1FB681B69002B04D10023FB61C6
:104FD000BB68BB6103E0BB68FB610023BB61FB688E
:104FE0007422002199542CE07A69F8683B68009398
:104FF00013000022802100F0CBFC031E01D003230C
:1050000038E0FB69002B0BD1BB691B881A00FB68D9
:105010001B68D205D20D9A62BB690233BB6107E0FF
:10502000FB691A78FB681B689A62FB690133FB61B4
:10503000FB6852229B5A9BB2013B99B2FB685222F9
:105040009952FB6852229B5A9BB2002BCCD17A69B1
:10505000F8683B68009313000022402100F098FCA0
:10506000031E01D0032305E0FB6820229A6700237A
:1050700000E002231800BD4608B080BD80B58AB0AC
:1050800002AFF860B9603B60BB1D1A80FB68DB6F44
:10509000202B00D0D9E0BB68002B03D0BB1D1B88A0
:1050A000002B01D10123D1E0FB689A6880235B01CA
:1050B0009A4209D1FB681B69002B05D1BB6801220C
:1050C000134001D00123C1E0FB6874229B5C012BDB
:1050D00001D10223BAE0FB68742201219954FB68D4
:1050E000802200219950FB682222DA67FB680022A7
:1050F0001A66FCF713FC03007B61FB68BA1D58219C
:1051000012885A52FB68BA1D5A2112885A52FB68FB
:105110009A6880235B019A420DD1FB681B69002BC2
:1051200004D1FB685C224B4999522EE0FB685C225B
:10513000FF21995229E0FB689B68002B0DD1FB6889
:105140001B69002B04D1FB685C22FF2199521CE0F3
:10515000FB685C227F21995217E0FB689A688023E4
:105160005B059A420DD1FB681B69002B04D1FB68DB
:105170005C227F21995208E0FB685C223F21995212
:1051800003E0FB685C22002199521223FB18FA68A5
:105190005C21525A1A80FB689A6880235B019A420C
:1051A00008D1FB681B69002B04D10023FB61BB689D
:1051B000BB6103E0BB68FB610023BB61FB68742239
:1051C0000021995436E07A69F8683B68009313002F
:1051D0000022202100F0DCFB031E01D0032335E078
:1051E000FB69002B0ED1FB681B685B6A9BB2122225
:1051F000BA18128813409AB2BB691A80BB6902338D
:10520000BB610EE0FB681B685B6ADBB21222BA1856
:105210001288D2B21340DAB2FB691A70FB6901330B
:10522000FB61FB685A229B5A9BB2013B99B2FB6817
:105230005A229952FB685A229B5A9BB2002BC2D128
:10524000FB682022DA67002300E002231800BD4635
:1052500008B080BDFF010000B0B58EB000AFF861AE
:105260001A2318229B18DB1900221A70FB699A680E
:10527000FB691B691A43FB695B691A43FB69DB69BC
:1052800013437B63FB691B681B68C34A1340190007
:10529000FB691B687A6B0A431A60FB691B685B68D1
:1052A000BE4A13401900FB69DA68FB691B680A43B0
:1052B0005A60FB699B697B63FB691B68B84A934230
:1052C00004D0FB691B6A7A6B13437B63FB691B6821
:1052D0009B68B44A13401900FB691B687A6B0A4348
:1052E0009A60FB691B68B04A934231D1AF4BDB6CCB
:1052F00003221340032B1DD023D8022B0CD020D81F
:10530000002B02D0012B0ED01BE01B2318229B1870
:10531000DB1901221A70B4E01B2318229B18DB1939
:1053200002221A70ADE01B2318229B18DB190422FD
:105330001A70A6E01B2318229B18DB1908221A708A
:105340009FE01B2318229B18DB1910221A7098E08B
:10535000FB691B68964A934231D1944BDB6C0C225B
:1053600013400C2B1DD023D8082B0CD020D8002B99
:1053700002D0042B0ED01BE01B2318229B18DB1934
:1053800000221A707DE01B2318229B18DB190222D1
:105390001A7076E01B2318229B18DB1904221A705E
:1053A0006FE01B2318229B18DB1908221A7068E093
:1053B0001B2318229B18DB1910221A7061E0FB696D
:1053C0001B687C4A934206D11B2318229B18DB19C9
:1053D00000221A7055E0FB691B68774A934206D198
:1053E0001B2318229B18DB1900221A7049E0FB6965
:1053F0001B686B4A93423ED16C4BDA6CC0231B0195
:105400001340C0221201934227D0C02212019342BE
:105410002AD880221201934211D080221201934295
:1054200022D8002B04D08022D20093420ED01BE061
:105430001B2318229B18DB1900221A7021E01B2362
:1054400018229B18DB1902221A701AE01B2318225B
:105450009B18DB1904221A7013E01B2318229B18D7
:10546000DB1908221A700CE01B2318229B18DB1989
:1054700010221A7005E01B2318229B18DB1910223A
:105480001A70FB691B68464A934200D09AE01B23BE
:1054900018229B18DB191B78082B1DD020DC042B4D
:1054A00015D01DDC002B02D0022B05D018E0FEF732
:1054B0000FF90300FB621CE03C4B1B6810221340F9
:1054C00002D03E4BFB6214E03D4BFB6211E0FEF765
:1054D0004FF80300FB620CE080231B02FB6208E034
:1054E0000023FB621A2318229B18DB1901221A7071
:1054F000C046FB6A002B00D134E1FB695A681300F7
:105500005B009B18FA6A9A4205D3FB695B681B0330
:10551000FA6A9A4206D91A2318229B18DB1901222B
:105520001A701FE1FB6A3B6100237B6139697A696C
:105530000B001B0E100005021D430B001C02FB6933
:105540005B685B08BB600023FB60B868F968001902
:105550006941FB695B683B6000237B603A687B685C
:10556000FAF768FE02000B001300BB62BA6AC023A0
:105570009B009A4209D3BA6A80235B039A4204D201
:10558000FB691B68BA6ADA60ECE01A2318229B18E0
:10559000DB1901221A70E5E0F369FFEFFFCFFFFF8F
:1055A00000480040FFF4FFFF0038014000100240B7
:1055B00000440040004C00400050004000093D0005
:1055C0000024F400FB69DA6980231B029A4200D0B0
:1055D00071E01B2318229B18DB191B78082B22D89B
:1055E0009A00684BD3181B689F46FEF771F80300BA
:1055F000FB6221E0FEF782F80300FB621CE0624BD5
:105600001B681022134002D0604BFB6214E0604B19
:10561000FB6211E0FDF7ACFF0300FB620CE08023AE
:105620001B02FB6208E00023FB621A2318229B186E
:10563000DB1901221A70C046FB6A002B00D191E0F1
:10564000FB6A5A00FB695B685B08D218FB695B6800
:1056500019001000FAF762FD03009BB2BB62BB6A3F
:105660000F2B21D9BA6A80235B029A421CD2BB6AF3
:105670009AB20E2018240319DB190F218A431A80CD
:10568000BB6A5B089BB20722134099B20319DB196E
:105690000219D21912880A431A80FB691B68021981
:1056A000D2191288DA605DE01A2318229B18DB19E0
:1056B00001221A7056E01B2318229B18DB191B7855
:1056C000082B22D89A00334BD3181B689F46FDF74E
:1056D000FFFF0300FB6221E0FEF710F80300FB620E
:1056E0001CE0294B1B681022134002D0274BFB62A1
:1056F00014E0274BFB6211E0FDF73AFF0300FB6269
:105700000CE080231B02FB6208E00023FB621A23EB
:1057100018229B18DB1901221A70C046FB6A002B65
:1057200020D0FB695B685A08FB6AD218FB695B688A
:1057300019001000FAF7F2FC03009BB2BB62BB6ACF
:105740000F2B09D9BA6A80235B029A4204D2FB6903
:105750001B68BA6ADA6005E01A2318229B18DB1965
:1057600001221A70FB6900225A66FB6900229A66C0
:105770001A2318229B18DB191B781800BD460EB09F
:10578000B0BDC046746E00080010024000093D0024
:105790000024F400986E000880B582B000AF7860F5
:1057A0007B685B6A012213400BD07B681B685B68D7
:1057B0004A4A134019007B689A6A7B681B680A434F
:1057C0005A607B685B6A022213400BD07B681B68BF
:1057D0005B68434A134019007B68DA6A7B681B6880
:1057E0000A435A607B685B6A042213400BD07B68D3
:1057F0001B685B683B4A134019007B681A6B7B6827
:105800001B680A435A607B685B6A082213400BD00E
:105810007B681B685B68344A134019007B685A6BCD
:105820007B681B680A435A607B685B6A10221340DE
:105830000BD07B681B689B682C4A134019007B685F
:105840009A6B7B681B680A439A607B685B6A2022BC
:1058500013400BD07B681B689B68254A13401900D6
:105860007B68DA6B7B681B680A439A607B685B6ABB
:10587000402213401DD07B681B685B681D4A1340A3
:1058800019007B681A6C7B681B680A435A607B6846
:105890001A6C80235B039A420BD17B681B685B68A0
:1058A000154A134019007B685A6C7B681B680A43D1
:1058B0005A607B685B6A802213400BD07B681B6850
:1058C0005B680E4A134019007B689A6C7B681B6802
:1058D0000A435A60C046BD4602B080BDFFFFFDFFCF
:1058E000FFFFFEFFFFFFFBFFFF7FFFFFFFEFFFFF5D
:1058F000FFDFFFFFFFFFEFFFFFFF9FFFFFFFF7FF50
:1059000080B586B002AF78607B6880220021995014
:10591000FCF704F80300FB607B681B681B68082227
:105920001340082B0CD1FB68802291037868174A3A
:105930000092002200F02CF8031E01D0032321E086
:105940007B681B681B6804221340042B0CD1FB6886
:105950008022D10378680D4A0092002200F018F8E6
:10596000031E01D003230DE07B6820229A677B6829
:105970002022DA677B6800221A667B687422002185
:10598000995400231800BD4604B080BDFFFFFF01FD
:1059900080B594B000AFF860B9603B60FB1D1A7031
:1059A000A3E0BB6D013300D19FE0FBF7B7FF02001E
:1059B0003B68D31ABA6D9A4202D3BB6D002B3DD11E
:1059C000EFF31083BB62BB6A7B640123FB62FB6A5B
:1059D00083F31088C046FB681B681A68FB681B6865
:1059E0004C490A401A607B6C3B633B6B83F3108825
:1059F000C046EFF310837B637B6B3B640123BB6387
:105A0000BB6B83F31088C046FB681B689A68FB6811
:105A10001B6801218A439A603B6CFB63FB6B83F339
:105A20001088C046FB6820229A67FB682022DA674C
:105A3000FB68742200219954032367E0FB681B680C
:105A40001B680422134050D0FB681B68DA6980236E
:105A50001B011A4080231B019A4246D1FB681B6838
:105A6000802212011A62EFF310833B613B69FB64F1
:105A700001237B617B6983F31088C046FB681B6848
:105A80001A68FB681B6823490A401A60FB6CBB61FB
:105A9000BB6983F31088C046EFF31083FB61FB6999
:105AA000BB6401233B623B6A83F31088C046FB68FA
:105AB0001B689A68FB681B6801218A439A60BB6C6B
:105AC0007B627B6A83F31088C046FB6820229A675A
:105AD000FB682022DA67FB68802220219950FB684E
